:020000040800F2
:1000000000C0002029060008610200086302000801
:10001000650200086702000869020008000000008D
:100020000000000000000000000000006B0200085B
:100030006D020008000000006F0200087102000855
:1000400071060008710600087106000871060008B4
:1000500071060008710600087106000871060008A4
:100060007106000871060008710600087106000894
:100070007106000871060008710600087106000884
:100080007106000871060008710600087106000874
:100090007106000871060008710600087106000864
:1000A0007106000871060008710600087106000854
:1000B0007106000871060008710600087106000844
:1000C0007106000871060008710600087106000834
:1000D00071060008AD0500087106000871060008E9
:1000E0007106000871060008710600087106000814
:1000F0007106000871060008710600087106000804
:1001000071060008710600087106000871060008F3
:1001100071060008710600087106000871060008E3
:1001200071060008710600087106000871060008D3
:1001300000000000000000000000000000000000BF
:1001400000000000000000000000000000000000AF
:10015000000000000000000000000000000000009F
:10016000000000000000000000000000000000008F
:10017000000000000000000000000000000000007F
:10018000000000000000000000000000000000006F
:10019000000000000000000000000000000000005F
:1001A000000000000000000000000000000000004F
:1001B000000000000000000000000000000000003F
:1001C000000000000000000000000000000000002F
:1001D000000000000000000000000000000000001F
:0401E0005FF8E0F1F3
:1001E40010B5054C237833B9044B13B10448AFF36D
:1001F40000800123237010BD34040020000000009F
:100204009C07000808B5034B1BB103490348AFF32F
:10021400008008BD00000000380400209C0700088E
:1002240080B500F083F900F0B1F80A4E0025C6F855
:10023400A051094C0127C4F888714FF4967000F05E
:1002440093F9C6F8A071C4F888514FF4967000F081
:100254008BF9EAE700002142008022427047FEE762
:10026400FEE7FEE7FEE770477047704770470000FF
:1002740082B00023019300932C4A136843F4803323
:1002840013602A4B1B6803F400330093019B013372
:100294000193009B1BB9019BB3F5A06FF1D1234BD4
:1002A4001B6813F4003F06D001230093009B012B2D
:1002B40004D002B0704700230093F7E71C4B1A6880
:1002C40042F010021A601A6822F003021A601A68D7
:1002D40042F002021A60A3F580535A685A605A68C1
:1002E4005A605A6842F480625A605A6822F47C1256
:1002F4005A605A6842F4E8125A601A6842F08072EE
:100304001A600A4B1B6813F0007FFAD0074B5A6837
:1003140022F003025A605A6842F002025A60034B08
:100324005B6803F00C03082BF9D1C2E7001002400C
:100334000020024008B5FFF79BFF08BD08B5104B2D
:100344001A6842F001021A6059680E4A0A405A605B
:100354001A6822F0847222F480321A601A6822F435
:1003640080221A605A6822F4FE025A604FF41F0277
:100374009A60FFF7DFFF044B4FF000629A6008BDFC
:10038400001002400000FFF800ED00E030B583B03B
:100394000121242000F092F84FF48075ADF8045048
:1003A40010238DF8073003238DF806300C4C01A977
:1003B400204600F027F82946204600F07CF8042562
:1003C400ADF8045004F540640DEB0501204600F03F
:1003D40019F82946204600F06EF803B030BD00BF7E
:1003E40000080140042806D04FF0E022136923F0EE
:1003F4000403136170474FF0E022136943F00403D0
:100404001361704730B5CB7803F00F02964613F0B2
:10041400100F03D091F802E04EEA020E0B7803B3FA
:100424000468002301E042610133072B18D801223C
:100434009A40B1F800C032EA0C05F5D14FEA830CBA
:100444000F2505FA0CF524EA05040EFA0CFC4CEA17
:100454000404CD78282DE6D0482DE5D10261E3E7E8
:1004640004600B88FF2B25D94468002303E0CD7872
:10047400482D1CD00133072B1BD803F1080C012293
:1004840002FA0CF2B1F800C032EA0C05F2D14FEADC
:10049400830C0F2505FA0CF524EA05040EFA0CFC6E
:1004A4004CEA0404CD78282DE1D14261DFE70261F2
:1004B400E0E7446030BD01617047000021B1054AA6
:1004C4009369184390617047024A936923EA0000D4
:1004D40090617047001002408088C0F308007047A4
:1004E400C1F3421201F01F0C012303FA0CF3012A99
:1004F4000FD0022A11D0828A92B21340090A012233
:1005040002FA01F1028892B20A4053B15AB90020AA
:100514007047828992B21340F0E7028A92B2134084
:10052400ECE70020704701207047000008B56FF029
:100534000400FFF757FF084B1B68084AA2FB03237C
:10054400C3F34753064A1370C3EB431203EB82030E
:10055400DA00044B1A8008BD0000002083DE1B4330
:1005640052040020500400200E4B1B8803FB00F0B3
:100574004FF0E023586100229A611A6942F00102A7
:100584001A614FF0E0231B6903F00113012BF8D02B
:100594004FF0E0231A6922F001021A6100229A61E5
:1005A400704700BF5004002008B540F225511A4896
:1005B400FFF796FF00B908BD1748FFF78DFFC0B2DB
:1005C400164A1388B2F90020002AF4DB13F4804F92
:1005D4000CD00A2803D0114B00221A80EBE76FEAF3
:1005E40043436FEA53430D4A1380E4E70D280DD0CB
:1005F400C3F30D020A49885401339BB2074A13809E
:10060400C72BD8D9134600221A80D4E743F4804379
:10061400024A1380CFE700BF003801401C050020C8
:10062400540400200C480D490D4A002302E0D4581C
:10063400C4500433C4188C42F9D30A4A0A4C002328
:1006440001E013600432A242FBD3FFF777FE00F00F
:100654000FF8FFF7E5FD7047000000203404002088
:10066400C40700083404002024050020FEE700002D
:1006740070B50D4E0D4D761BB61006D0002455F8FE
:10068400043B01349847A642F9D1094E094D00F0C4
:1006940083F8761BB61006D0002455F8043B0134C9
:1006A4009847A642F9D170BDB8070008B8070008FA
:1006B400C0070008B8070008024B13B1024800F055
:1006C40005B8704700000000DD060008002301465D
:1006D4001A46184600F01AB838B5084B084D5B1B8B
:1006E4009C1007D0043B1D44013C55F8043998473D
:1006F400002CF9D1BDE8384000F054B8C407000814
:10070400C0070008704700BF704700BF2DE9F047DD
:10071400DFF87CA00646DAF8000098460F469146BA
:10072400FFF7F0FF1B4B1B68D3F8484124B36568FF
:100734001F2D26DC5EB96B1C0235DAF800006360FD
:1007440044F82570FFF7E0FF0020BDE8F08701239F
:1007540004EB8501C1F88890D4F88821AB401A4392
:10076400022EC4F88821C1F80881E4D1D4F88C2180
:100774001343C4F88C31DEE703F5A674C3F848418B
:10078400D5E7DAF80000FFF7BFFF4FF0FF30DCE7F2
:1007940030040020B4070008F8B500BFF8BC08BC5A
:1007A4009E467047F8B500BFF8BC08BC9E4670472B
:0407B4000800002019
:0807B800BD060008090200085B
:0407C000E501000847
:1007C40000A24A040000000000000000F40200201F
:1007D4005C030020C40300200000000000000000AF
:1007E4000000000000000000000000000000000005
:1007F40000000000000000000000000000000000F5
:1008040000000000000000000000000000000000E4
:1008140000000000000000000000000000000000D4
:1008240000000000000000000000000000000000C4
:1008340000000000000000000000000000000000B4
:1008440000000000000000000000000000000000A4
:100854000000000000000000000000000000000094
:100864000000000000000000000000000000000084
:1008740001000000000000000E33CDAB34126DE621
:10088400ECDE05000B00000000000000000000008A
:100894000000000000000000000000000000000054
:1008A4000000000000000000000000000000000044
:1008B4000000000000000000000000000000000034
:1008C4000000000000000000000000000000000024
:040BF40020050020B8
:0400000508000629C0
:00000001FF
